:400000000080002011000000890400008904000010B500F007FE00F03FFAC04670B5154C12232360182000F075FDFE221202124B1A60124B124A1A60E0210901114A11601F
:40004000114A1A600025114B1D604022104B1A600132104B1A6010490E2000F0A3FC0E2000F080FC0D4B1D60002000F0E3FD1123236070BD30001040000301400000014010
:4000800040FF00800403014041FF0080280003401401014000010140C90C00000C02224010B572B6EE220D4B1A60EE2212020C4B1A6010220B4B1A6033320B4B1A600B4AE1
:4000C0000B4B1A60D82212010A4B1A6006220A4B1A60FFF7A3FF00F0B5F910BD000102400003024018000440000104402400180008010440080304401804044000000000F9
:4001000010B5064C2378002B07D1054B002B02D0044800E000BF0123237010BD5001002000000000E03D0000084B10B5002B03D00749084800E000BF07480368002B00D1B5
:4001400010BD064B002BFBD09847F9E70000000054010020E03D0000B80000200000000010B5044B196802F0FBFE034902F0B8FB10BDC046BC00002000401C4410B508496C
:4001800003F002F8074B596802F0EAFE03F0ECFC054A064B03F0BCF903F03AFD10BDC04600003C44BC00002033333333336B824010B5054902F0E8FF044B996802F0D0FEC1
:4001C000034902F08DFB10BD00007A44BC0000200080104410B5084902F0D6FF074BD96802F0BEFE03F0C0FC054A064B03F090F903F00EFD10BDC0460000BC44BC00002068
:40020000666666666662814070B562B600235F4A13605F4A13705F4A137000235E4A13605E4A13605E4A13605E4A136000F08EF900F0B0FD00F04CFF01F050F85A4B186194
:4002400001220121272000F091FA584B186000287ED101224F4900F017FB554B1860002876D101224A49013000F00EFB514B186000286DD1474B18780002454B1B781843A5
:400280004D4B188003F006F94C4902F07DFF4C4902F026FB4B4902F063FE4B4902F096FC041C4A4B18604A4902F0F2FA002805D0201CFFF755FF474B18601CE04649201C80
:4002C00002F0E6FA002805D0201CFFF757FF414B186010E04149201C02F0DAFA002805D0201CFFF765FF3B4B186004E0201CFFF771FF384B1860254B1D68394B9D4210DCD1
:40030000284E211C306802F0EBFA3060234C314B1968206802F0E4FA206001351B4B1D6016E0304B9D4213D11E4C2F49206802F04DFC1B4B1860194E2B49306802F046FC50
:40034000154B186000233360236001350F4B1D60002000F06DFA254B1860134B1B69002B00D069E700F03AFD002000F049FE002807D00023084A1360094A13600022034B38
:400380001A6000F039FF00F0E7FF55E7C4010020A4010020C0010020CC010020A8010020B4010020B8010020BC000020D4010020C8010020BC010020B001002000004D44A1
:4003C000000090410080BB4500606646D001002000003C44A001002000007A440000BC441F4E0000204E000000409C46D8010020114B1B68002803D080221206134301E0EF
:400400005B005B080C4A13600C4B1B68002803D080221206134301E05B005B08074A1360074B1B68002802D02022134301E020229343034A1360704780033A4080034A400C
:400440002800034010B580225201094B1A601022084B1A600D3A084B1A60202307490B6007490A60074A13600120FFF7C1FF10BD94022940C002294030003040000E3F40FF
:4004800030004040000E4F4010B503F06BFC03680C2B00D1FEE7FEE770B50F4E0F4D13E029686B68AC68002202E001C901C30432A242FAD1E868002202E0002102C3043263
:4004C0008242FAD11035013E002EE9D103F050FCFFF79AFEFEE7C04601000000683F000010B500230AE0032B03D89A000849505800E008489900084A885001332C2BF2D9EA
:40050000FFF7CEFD80229205044B1A6010BDC04600000000890400000000002008ED00E010B5072000F01EFA10BDC04610B500F01DF810BD10B5044A1368802109060B43B9
:400540001360FFF7EDFF10BD0000244010B5064B1B78002B04D1FFF7E9FF0122024B1A70FFF7E8FF10BDC0466C01002010B50024184B1C60184A194B1A60194B194A1360F5
:40058000194A1460194A1460194A1360194B1C60072000F0F1F90321072000F015FA1649072000F0FFF9154B1C60154B1C60154B1C60154B1C60154B1C60154B1C601022C4
:4005C000144B1A70144B1C80144B1C60144B1C6010BDC04600002440770800806000244007010080000324400403244010032440000224400402244031220000C80E244039
:40060000880E2440480F2440080F2440C80F2440880F2440DC010020EC010020FC010020E401002010B50E4A13685B005B08136000230C490B600C490B600C4804680C49A7
:40064000214001600B490B600B490B6010210B4B19701368802109060B43136010BDC04600002440680024406C00244060002440FF5CFFFF880F2440C80F2440DC0100201B
:4006800010B504000368002B09D0012000F0AEFA2368013B2360002B03D0002003E0002001E08020000610BD10B5002839DBC023034208D00022284B1A601032274B1A703C
:4006C000002310243DE0C3070FD5244B1B781B072BD5234B1B685B0001D5002300E0012310211E4A117001242BE0C30520D4830722D4C30605D51022184B1A7000230024DC
:400700001FE0164B1B781B0719D5144B1B78DB0701D5252200E02422104B1A70002300240FE00123802424060BE00123012408E001238024640004E00023022401E0002319
:400740000024012B02D1FFF76DFF02E0054A064B1A60200010BDC04668002440DC0100206000244017030000000F244070B582B004000D001600244B1B78102B40D10720F8
:4007800000F0FAF8214B1B68DB0734D4FA239B005E43019600221E4B1A601E4A1E4B1A601E4A1F4B1A606400FF231C40002D03D12422154B1A7004E02522134B1A700123A8
:4007C0001C43184B1C600222174B1A60124B1C680823FF3320001840144B1B68C02423401843040001A8FFF74BFF2043EED0FFF75BFF040000E00824072000F0B3F800E071
:400800000424200002B070BDDC01002064002440080F244017030000000F2440ED0F0000C00F24404002244068002440400F244010B582B0104B1B789B061AD5FA239B0043
:40084000584301900D4B1B689B0601D5182200E010220B4B1A600B4B18681223FF331840040001A8FFF70CFF2043F4D0FFF71CFF00E0042002B010BDDC010020640024401B
:4008800068002440000F2440F0B583B004000D00164B1B789B0626D5FA239B005A430192134B18680223FF3318400700114B1B6804261E4001A8FFF7E3FE38433300034329
:4008C000EED0002E05D00C4B1B682B700B4A094B1A60FFF7E9FE002806D1002C04D10422074B1A6000E0042003B0F0BDDC010020000F2440C00F244040032440ED0F000026
:40090000680024400C4B1B689B001C22134018330A4A1268920803210A40D34008490868084A02400A60084A944663441B78DBB2064A13607047C046080F034028000340BA
:4009400000002240FFFFFFBF4DF3FF0F0C0F0340034B18688023DB05184000D001207047000022401F2318401E3B8340014A13607047C04600E100E01F2318401E3B834052
:40098000014A13607047C04680E100E01F2318401E3B8340014A13607047C04680E200E001BE704770B504000D001C2802D90020FFF7F6FF1034A40080239B059C4664447D
:4009C0002068256070BDC04670B504000E00032902D90020FFF7E4FF1C2C02D90020FFF7DFFF03252540ED00063501F01AFCA408A400074B9C46644421680323AB4099430B
:400A00000B003100A9401943216001F00EFC70BD00E400E010B5040006E0084B586801F0F7FB074B9C46644480231B029C42F4D8024B9868604301F0EBFB10BDD000002059
:400A40000080FFFF70B582B000F0E2F800284DD001F0E7FB0500264B1A6892001C231A401832244B1B689B0803210B40DA400021214B1960214C2168214B0B4021494A438A
:400A80008021C9018C466244D20B013A5205520D1343A0225203134323601B4B1B680193302001F065FD194A13688021C9050B4313602668164B1E40002407E00120FFF7A2
:400AC000A9FF1034A30533430C4A1360EE2CF5D90120FFF79FFFFF239B051E43074B1E60019A094B1A60280001F09FFB02B070BD080F0340280003400C0F0340080022400B
:400B000000F800C040420F003000104000002240FFFF3FC0F0B583B0040018280BD01C2809D0202807D0242805D0282803D02C2801D0302849D101F074FB0190FFF708FF91
:400B4000002803D0FFF7DEFE012600E00026214A136807218B4313601F4BE3181B78DBB21E4A13601E4A13688B4313601D4803687F22934319001C4BE3181B7813400B43B2
:400B80000360322001F044FB182C16D9114F3B680725AB431A0023001C3B9B082B4013433B60322001F034FB3A68AA432300183B9B082C001C4014433C60012E01D1FFF7E1
:400BC00041FF019801F031FB02E00020FFF7E8FE03B0F0BD080F03404DF3FF0F0C0F0340100F0340180F034034F3FF0F10B5034B1B7B584301F00CFB10BDC046D0000020BB
:400C0000024B1868800F80077047C0460C022240034B1B68002B01DA012000E00020704700002240014A024B1A6070476588EDAC3800034010B50400FFF7E2FFA0421AD05D
:400C4000144A136803218B431360134B1B689B0F01D17C2001E086204000FFF7C7FF01F0E0FA0D4A13689B009B08A40FA4071C43146001F0DAFA074B1B6803229343064AC9
:400C80001268920F01D1023200E001221343014A136010BD140222400C02224010B5040001F0BFFA054B1C4005490B68054A134023430B600B6801F0B8FA10BD0404040005
:400CC00010022240FBFBFBFF10B5244B1B685B0715D5234B1B685B070ED5224B5969042001401F4C22688A4322605A6982435A619B68002B00D098470420FFF7CFFF174B15
:400D00001B685B0518D5164B1B685B0510D5154B59698022D2001140114802688A4302605969114A0A405A61DB68002B00D098478020C000FFF7B2FF084B1B685B030CD586
:400D4000074B1B685B0304D5064B1B69002B00D098478020C002FFF7A1FF10BD10022240E400002074010020FFFBFFFF10B5084B1B78002B06D100F007F900F053F90122F2
:400D8000034B1A7000F04CF800F07EFC10BDC0468C01002070B5FFF7E9FF051E02D100F06DFB0500002D02D100F0D6FA0500002D02D00BE0013C00E0074C00F08FFA002827
:400DC00001D0002CF6D1002C00D1102500F034F900F07EF9280070BD404B4C0070B50E4E0025002413E0630904339B000B4A9B581F222240D340DB0707D5300000F048F836
:400E000005003100200000F093F81C360134002CE9D0280070BDC046E83D00000402002070B5002309E012491A1D92008818002444600120404250500133002BF3D00D4C54
:400E4000012310E06668A27E094B5B1900211976012A06D12069002803D0F179228B02F0B6FF1C342B005D1E002BEBD170BDC04604020020E83D000030B50B884A889C1A59
:400E80000025CD800079844200DDCC8030BDC046F0B583B0070084684568837E01930026002300930BE0019A2100280000F026F9009021002800FFF7DFFF0A3401363B8BB6
:400EC0009E42F0D3009803B0F0BDC046F0B50A8B8D684F680B69012125E00C00044003D17E88BA79B21802E07A88BE79921BEE88B24201D3002200E00A00A24202D01E784B
:400F0000013E1E70A24202D01C78002C07D188431043002A01D1FA7900E001221A7049000A3501336246541EA446002AD5D1F0BD70B504008A7E134B1B181D7E012A04D1E2
:400F40002800FFF7C3FF050002E00020FFF728FD0C4B1B191D7663091F2214401E3AA240002D07D104339B000649CB1859689143596006E004339B000249CB1859680A43CB
:400F80005A6070BD0402002070B5194C40220021200002F01CFF174B238090231B016380154BA38084235B0063830322C93BE2543E3B2377114D20001E30290020310D32D1
:400FC00002F0FCFE2A002C1D01230CE0A168238B04E013784B7201320A310300581E002BF7D11C342B005D1E002BEFD170BDC0460402002042B9FFFFB80B0000E43D0000AE
:4010000000280BD11F23034001229A404009031D9B000348C3185868104000E000207047040200200023024AD380024A1360704704020020940100207047C046FF231940C8
:40104000062902D08318002119715300195AC31859808218002313727047C04670B506000D00012305E0220029003000FFF7E6FF23005C1E002BF6D170BDC04670B5094CDD
:40108000C3001D1AAA00A21895688A0051184A00AA181B1A99006118897E1000FFF7DEFF70BDC046E83D000070B50500C200121A9300064AD3181B8B04E021002800FFF79E
:4010C000DDFF23005C1E002BF7D170BDE83D000010B5012303E02000FFF7E6FF23005C1E002BF8D110BDC0469840504380235B009A1A51434018000A7047C046F0B5474605
:4011000080B482B007000E00019201233EE06300985BF3185988884205D3431A321900251572012201E00B1A0022002A11D17D79AB420ED933191B7A3A7A934205D32200A2
:4011400001993000FFF77AFF1FE03219013313721BE03D79AB4204D97D79AB4215D8002A13D1FF23019A1340062B0ED00902331998461B79194308230122FFF7B5FF020A92
:401180006300F3185A804346187123005C1E002BBDD1002002B004BC9046F0BD70B5094DC3001C1AA200AA18546896688A005218510071181B1A9A00AA18927E2000FFF753
:4011C0009DFF70BDE83D000070B50600C200121A9300084AD3181B8B002505E021003000FFF7DCFF054323005C1E002BF6D1280070BDC046E83D000070B50024012304E09E
:401200002800FFF7E1FF04432B005D1E002BF7D1200070BD70B504000D009F2808D91B4B994205D91A49280001F01AFB002921D09F2C09D9FF235B009D4205D9154928006E
:4012400001F00EFB002917D09F2C07D97E2D05D97F21280001F004FB00290FD09F2C0FD93E2D0FD93F21280001F0FAFA00290BD000200AE0042008E0032006E0022004E0D4
:40128000002002E0002000E0012070BDFE030000FF030000FF01000010B54B1EDBB2032B01D8102300E00023002911D0002B11D0642253430100180001F04CFA002301E05D
:4012C000013340000928FBD90A2804D9013B02E0002300E00023D8B210BDC046024BDB68802018407047C0460402002010B50E4BDB68DB030DD400280DD1430904339B0016
:40130000094A9B581F220240D340DB0705D4012404E0112402E0012400E00024002C01D100F0E8FD200010BD0402002010B5084BDB68DB0307D4074B1B78012B05D100F0FC
:401340002DFD002003E0112001E00120404210BD040200209801002010B50C4BDB681B0612D40024012040420BE02000FFF7BEFF002805D10022064B5A70FFF7D7FF04E009
:401380000134002CF1D000E0112010BD0402002098010020F0B557464E464546E0B482B0060001280BD0022804D00023984606339A4607E00523984600239A4602E0002310
:4013C00098469A46184C002523E000F02AFF01902268136821698B43136060680268A17E894607214F46B9408A435146B9400A430260227E414691400B4322681360A268FA
:40140000136861698B431360019800F00EFF1C340135002DD9D0300000F098FA02B01CBC90469946A246F0BD283E00007047C046074A084B1A6001380002074B1860054B18
:401440001B68002BFBDB054A024B1A607047C04640000040000001400003014040FF008010B5031E01D1002000E00120002803D15521180000F05AFE10BDC04670B500248A
:40148000002504E02000FFF7EBFF05430134002CF8D0280070BDC046C300181A8300024AD3185B6898897047E83D00000203121A01238B40013B9A4205D90202101A8342DF
:4014C00003D3052002E0062000E00020C0B2704770B50E00FFF7E0FF05003188002200F06FFB01002800FFF795FE041E04D168003188FFF7DBFF040021002800FFF7CCFED7
:401500000001C0B22043B07370BDC04610B5002409E0E200121B9300044AD31859682000FFF7D6FF0134002CF3D010BDE83D0000F0B55F4656464D464446F0B483B00190A5
:401540002B4E3468F0231B011C400094294F3B68042292461A409146274C2568E0235B001D40AB4600F05DFE3368244A90461340336000F05AFE00F054FE3B685246934396
:401580003B6000F052FE00F04CFE23681C4D2B40C02252001343236000F047FE6B469888FFF724FB00F03DFE23681D405A461543256000F03AFE00F034FE3B6852469343A4
:4015C0004A4613433B6000F030FE00F02AFE336842461A401400009B1C43346000F025FE03B03CBC90469946A246AB46F0BDC046000402400004044008040440FFF0FFFF4B
:401600003FFEFFFF70B505000E00140000F009FE2B685C4034405C402C6000F006FE70BD10B5084A136801218B4313600022F02109010548FFF7E6FF00F04AFC00F0D4F9F3
:4016400010BDC046A80229400004024010B504000C4B1B78834214D0012B01D1FFF7E0FF012C05D100F0C6F90122064B1A7008E0022C06D0042C04D0032C02D00022014B00
:401680001A7010BD9801002010B5FFF73FFF0020FFF780FE00213F23044AD1540020FFF7D5FF0120FFF7D2FF002010BD04020020034A044B11680B400002184310607047CE
:4016C000E8000020FFFCFFFF01390843014B18607047C0460002294010B50F4B1B68702293431C000D4B197F0D4801F033F80D4B984204D820232343074A13600BE0084B38
:40170000984204D830232343034A136003E040232343014A136010BDE80000200402002000366E01001BB700034A044B1A60C5225204034B1A60704700008F01C001294012
:40174000C4012940F0B5474680B482B00500C200121A9300224AD3185A689C68138801279F40013F0A2902D908000A3800E000200A23984688444346642B01D96423984698
:401780007843642100F0E6FF060040467843642100F0E0FF010000270023019313E05300185B864208D81300814201D207E001235A1E002BF3D104E00623019301E0062373
:4017C00001930A340137EA00521B9300044AD3181B8B9F42EBD3019802B004BC9046F0BDE83D0000F8B54F464646C0B4070046688468B57AA84601237F200022914608E020
:40180000B3185B7A994500D29946984200D9180013005A1E002BF3D100210CE0A3185B7A984200D91800130000E001235A1E002BF4D10A3401313B8B9942F6D34346002BBF
:4018400013D0132813D80D49EA008A1850686B1EDB00CB18596800F07DFF4F4647437E2F07D8013DB572012004E0002002E0002000E000200CBC90469946F8BD443E000066
:40188000F0B55F4656464D46E0B482B007008A4643689B461B8801229A401300013B019301234AE05B465B195B7A9946BB686A00D05A4C46002208E05919497A8C4202D9BB
:4018C0006800C05A0C000A330132F97E8A42F3D364235843019900F03DFF64306043514600F038FF814500D381465B465B194A465A72BC6800261CE06B00185B64235843ED
:40190000019900F027FF643063195B7A584353464A465343984203D2631900225A7206E0C01A3230642100F015FF631958720A340136FB7E9E42DFD32B005D1E002BB1D1DB
:4019400002B01CBC91469A46A346F0BDF0B54F464646C0B483B0012809D0022803D000270623994606E005270023994602E0002700239946184C002527E000F052FC019077
:4019800022681368E1688B43136060680268A17C884607214646B1408A434946B1400A430260227C390091400B4322681360A1680B68627C944601226646B24093430B60B1
:4019C000019800F032FC14340135002DD5D003B00CBC90469946F0BD143E000010B50220FFF7B4FF10BDC04610B50020FFF7AEFF10BDC046F8B54F464646C0B43C4B3F22C9
:401A00009A5C3E21585C824206D0FFF7C3FC384B3E22995C01329954FFF7E0FF0120FFF787FDC0221203334B1A60334D2B68334A904613432B600024314B1C60314B1C609C
:401A40001022314B1A60314B1C60314F3C60314B1C60314B99461C60304E3460304B1C60C022D200F02109012E48FFF7CBFD002204212D48FFF7C6FD2C4B1A6880214901F6
:401A80000A431A6001212A4A1160882252021A604B461C602B68424613432B6080235B04244A13602449254A116002223A602449244A11603360FFF737FE0D4B187FFFF7FA
:401AC000B7FC0020FFF7F4FDFFF706FE1E4B1B681E4A13431E4A13600F221E4B1A601E4B1C60053A1D4B1A600CBC90469946F8BD0402002004022940A802294001000010A8
:401B0000F4002940B4022940C0022940200329408401294088022940800229408402294080012940000402400004044094022940A0022940A40229404112000088012940E1
:401B40000000030190022940E8000020001000800000294000032940F001294010032940F8B50700837ADB000F4A9D5800F059FB0E4B1A680E4C22400E490E78BF19797AC6
:401B80000A432A431A6000F050FB00F04AFB0A490B682340094A12689619727A13432B430B6000F042FBF8BD443E0000C001294080FF3FFC7C3E0000C4012940440200202B
:401BC00010B50300140001208840102900D11D38002B02D0190000F0BDFD053C012C00D84008002800D1013010BDC04610B50E4B1A78D2B2D3009A1A93000C4AD3185B6824
:401C000099899B7B18045A1F012A02D8802292041043053BDBB2012B02D8490800D10131FFF752FD10BDC0469B010020E83D000010B50300808919889A7BFFF7C1FF0004E6
:401C4000000C014B186010BD1403294010B51120FEF792FE01222E4B1A6000232D490B602D482E4908602E490B6006202D4908602D490A602D490A60832149002C4A1160E4
:401C80002C4A136003222C4B1A60F02300E0013B274A1268520701D4002BF8D1002B02D10822254B1A6083225200214B1A601120FEF76CFE1120FEF755FE802252021A4B96
:401CC0001A600023154A1360154A136094229201144B1A605022154B1A6001230D4A13600B4A1360154A1368802149040B4313600222104B1A60F02300E0013B104A1268FA
:401D0000520701D0002BF8D10E4A0B4B1A6010BD800129408C01294001010100B0022940B40229408802294080022940F0012940F0002940F800294040032940000229406A
:401D4000000029400103000010B5054AD36805490B43D3600A20FEF749FFFFF777FF10BD040200208000010070B50400857E067E00F057FA23681B680F22B24093431A007F
:401D80000423B3401343666832680721A9408A4332602268136000F048FA70BDF8B5224B1A78D2B2D3009A1A9300204AD3185F681F4B3F229A5C3E21585C824206D0FFF7B5
:401DC000E9FA1B4B3E22995C01329954194C00232370154E3278D2B2144DD3009A1A9300EB1899682378DBB29A00D3185A008A18114B1A603800FFF7B3FE3378DBB2DA008A
:401E0000D31A9A0050592278D2B2D3009A1A9300C0180A4B1860FFF7A7FF094800F0EAF9FFF792FFF8BDC0469B010020E83D0000040200209A010020440200204802002001
:401E40000D27000010B5C300181A8300054A9858CB00591A8B00C018034B1860FFF784FF10BDC046E83D000048020020F8B50400067E857E00F0D5F9636819680723AB4019
:401E8000994327683B680F22B24093433B603F220E4FBA5C002A05D10623AB4019436368196008E0022A06D10332B24013436268116022681360A1680B68647E0122A240F5
:401EC00093430B6000F0B1F9F8BDC0460402002010B5064B1B78012B06D1054B1868FFF7C5FF0022014B1A7010BDC0469C0100204802002070B5124EC200121A9300F318ED
:401F00005D68C0B20F4C20700120FFF79FFBFFF7DFFF2378DBB2DA00D31A9A0092590A4B1A600A4BDA687F218A43DA602178DA680A43DA602800FFF77BFEFFF757FE70BD08
:401F4000E83D00009B010020480200200402002070B5C200121A9300134AD3185D68C9B2124C217099682378DBB29A00D3185A008A180F4B1A60FFF7BDFF2800FFF7F0FD98
:401F80002378DBB20B49DA00D31A98000B689C4660440860FFF7E8FE0122074B1A70074800F028F970BDC046E83D00009A01002044020020480200209C010020E126000003
:401FC000F0B5574680B484B00190C400241AA200534B9A1853689A461D000935012303E0002003AB985413005A1E002BF8D153461A8801239340013B59430800642100F0F5
:40200000A9FB06000023009370E0019BDA00D21A9300434AD3189F68009A9300944663445A00BF18012304E04023AB54B9184B7213005A1E002BF7D1402400990198FFF79B
:4020400087FF0120FFF774FAFFF77EFE354B00E0013B354AD26812060DD5002BF8D101330AE05300DB5B9E4203D9A9180B78A3430B70130000E001235A1E002BF1D16408B0
:4020800001330FE0A9180B782343DBB20B70B8184372002C05D10B78002B02D101330B70437213005A1E002BECD1002CC5D1013307E003AB9B181878A95C884200D2197074
:4020C00013005A1E002BF4D100990198FFF740FFFFF73AFE134B00E0013B134AD268120601D5002BF8D1009B01330093019BDA00D21A93000A4AD3181B8B009A9A4284D3D4
:40210000012305E003AB995C53469B18597213005A1E002BF6D104B004BC9246F0BDC046E83D000000A60E000402002070B504000D00C3001B1A9A00174E9619174BDB68E0
:40214000DB0324D4736805229A7229002000FFF737FF3000FFF746FB0028F6D129003000FFF78EFB2000FFF7C5FEFFF717FE0C4B00E0013B094AD268120601D5002BF8D112
:40218000002B06D029002000FFF7DCFA02E0112000E0102070BDC046E83D00000402002000366E018423014AD05070470000002010B5040000F035F8044A1168044B0B4093
:4021C000A4031C43146000F030F810BD10E400E0FF3FFFFF80229202014B1A607047C04600E100E080229202014B1A607047C04680E100E010B50400FFF7F4FF2000FFF734
:40220000D1FF0320FFF7D4FFFFF7E4FF10BDC0460230800803D001300238FCD1C046C0467047EFF3108072B6704780F31088704710B5AF4B1B68002B00D09847AD4B1B6804
:40224000DB0702D50022AC4B1A60AC4B1B789B0628D5AB4B1B68DB0507D5AA4A1188C0239B000B431380012300E00023A44A1268D20706D5A34A118890239B000B431380D1
:402280000123002B0FD09D4A1278D20701D5012200E002229B49088802430A800021974A117000E00023954A1278920600D417E1934A1268D20611D51022934B1A608F4B9A
:4022C0001B78DB0701D5012300E002238D4A11880B4313801022894B1A7007E1874A1278120720D5864A126892070AD50222864B1A60844A118888239B000B431380012355
:4023000011E07E4A1278D20703D525217B4A117009E02421794A11707C4A1268002A02D014397B4A1160754A1278520700D4AEE0724A1278D20749D5764A1268120727D55C
:40234000754A1268754909681F240C40744909686418141B082C09D8002C16D1714A1168714B0B401360012308340EE008240CE06B4A11686D48006841186D480068C0B21E
:402380000870116801311160013C002CF0D119E0604A1268520715D5614A116863480068411863480068C0B208701168013111601168594A1268914203D204215D4A1160DB
:4023C00000E001235C495D4A116060E04C4A1268920726D502224C4B1A6059490B681D321A40096880231B020B4000D001239B18544A1168CB1A13601268534B1A60414A96
:40240000118884239B000B431380504B1A68802149020A431A6019684D4A0A401A60012335E04C4A1268D2061ED427E0454A1168364A126891421DD2344A1268013A414999
:4024400009688A4204D1402243490A6030490A603C4A11684148006841180978C9B240480160116801311160354A12681F210A40082ADBD11021384A116008E0354A12685F
:40248000520604D52F4B1A682F4B1A600123002B2CD0244A1168244B0B4013600023314A13601B4A1360304B1B789B070ED5134B1B78DB0701D5092300E00A23114A11884A
:4024C0000B43138060220D4B1A700FE0274B1B689B0601D5182200E01022164B1A6005E0064B1B78DB0601D4FEF79CF810BDC046700100208C0E2440880E2440DC010020B4
:402500000C0F2440EC010020000F2440E8010020880F2440CC0F2440F801002008032440FC01002060002440FFFEFFFFF00100204003244068002440ED0F0000C00F244042
:4025400008022440E0010020E401002004022440FFFFFEFF8C0F2440800F24400002002040022440C80F2440F40100206400244070B50400FFF755FE0500102C05D8104AC6
:40258000136803218B43136016E0202C07D80C490B6803229343023A13430B600CE0302C07D807490B6803229343013A13430B6002E00020FEF7F4F92800FFF736FE70BD16
:4025C00030001040114B1A78D2B2D3009A1A93000F4AD3185B680F4A11680A04120C188801238340013B9A4206D20B4B1A680B4B1B785B00D15205E0074A1168074A12788A
:4026000052008B520022064B1A6070479B010020E83D0000D0002940440200207C3E00008802294070B5274B1978C9B2264CCA00511A8A00A21850681A78D2B2D1008A1AC9
:402640009300E3181A7E013A204B1B78DBB29A4220D91E4C23780133DBB22370194D2A78D2B2D3009A1A9300174AD31899682378DBB29A00D3185A008A18154B1A60FFF7D4
:402680006FFA2878C0B22178C9B2FFF7DBFBFFF7DDFA16E000220D4B1A700E4AD1680E4B0B40D3600D4B1B78012B02D1FEF7BEFE07E0084BDA6880218A43DA601A890132FB
:4026C0001A8170BD9B010020E83D00009A0100204402002004020020FFFFFEFF9901002010B583225200064B1A60FFF76BFF054B1A8901321A81D968034A0A40DA6010BDAE
:40270000F0002940040200207FFFFEFF10B50D4B1B78DBB2DA00D31A9A000B4BD4580B4B1A78D2B2D1008A1A9300E41883225200074B1A60FFF746FF2000FFF797FBFFF773
:4027400071FF10BD9B010020E83D00009A010020F0002940002243088B4274D303098B425FD3030A8B4244D3030B8B4228D3030C8B420DD3FF22090212BA030C8B4202D36F
:402780001212090265D0030B8B4219D300E0090AC30B8B4201D3CB03C01A5241830B8B4201D38B03C01A5241430B8B4201D34B03C01A5241030B8B4201D30B03C01A524153
:4027C000C30A8B4201D3CB02C01A5241830A8B4201D38B02C01A5241430A8B4201D34B02C01A5241030A8B4201D30B02C01A5241CDD2C3098B4201D3CB01C01A5241830968
:402800008B4201D38B01C01A524143098B4201D34B01C01A524103098B4201D30B01C01A5241C3088B4201D3CB00C01A524183088B4201D38B00C01A524143088B4201D37E
:402840004B00C01A5241411A00D20146524110467047FFE701B5002000F006F802BDC0460029F7D076E770477047C0468446081C6146FFE71FB500F02FFB002801D40021D5
:40288000C8421FBD10B500F0BBFA4042013010BD10B500F021FB002801DB002010BD012010BDC04610B500F017FB002801DD002010BD012010BDC04610B500F0C9FA002844
:4028C00001DC002010BD012010BDC04610B500F0BFFA002801DA002010BD012010BDC046F8B54A02430244004E00C50F240E28009B09360EC90F92098D4259D0A01B002894
:4029000000DC8DE0002E1AD1002A00D079E05A0704D00F221A40042A00D004335A0138D50134FF2C00D189E028009B015B0AE4B25B02E4055B0A2343C0071843F8BDFF2C19
:40294000E5D08021C9040A431B2800DD89E016002021C640081A8240511E8A4132439B1A5A0114D59B019E09300001F0DDF905388640844265DC041B330020200134E34047
:40298000041BA640721E964100243343BFE75A07BFD1DF082800FF2C2FD1002F00D187E08022D20313003B435B025B0AFF24BFE7A11B002949DD002E29D0FF2CA7D08026CC
:4029C000F60432431B2900DD8DE017002026CF40711A8A40511E8A413A439B185A01D6D50134FF2C64D0012276491A405B080B4013438CE7031ECAD100207B025B0AE4B20E
:402A000096E701380028AAD0FF2C9DD17FE7002A00D17CE701390029DFD0FF2CD2D176E7002820D1601CC0B2012853DD80279E1AFF0437402FD0D61A0D0095E728000023A8
:402A400076E7614B241A334061E700294DD1611CCEB2012E2FDDFF292AD09B185B080C0055E701227BE7002C1BD1002B5BD0C04300280CD0FF2E7ED01B2800DD92E01D0031
:402A80002024C540201A8340581E83412B43D31A34000D0064E7002E00D065E700200024ABE7FF2E67D08024E40440422343E3E7FF2400233CE7002C61D1002B7ED0002A83
:402AC00000D124E79B185A0100D460E73E4A0C0013401CE7002C1ED1002B2FD1002A66D013000D0013E7012277E7002C1FD1002B5AD0C94300290BD0FF2E50D01B295FDC59
:402B00001F002024CF40611A8B40591E8B413B439B18340062E7002B1CD1002A4AD013000D00FF24F3E6130034000D00EFE6FF2E35D08024E40449422343DFE7002A00D1DB
:402B4000E5E68027981AFF04074000D152E7D31A0D00DCE6FF24002A00D1D8E68020DB08C003034204D0D208024201D113000D00DB00FF24CBE61300FF240D00C7E6002B0C
:402B80000DD0FF24002A00D1C1E68021DB08C9030B42EDD0D2080A42EAD11300E8E71300FF24B4E6012372E713003400AFE60027002022E780270020FF03F1E61300A6E69E
:402BC0000123A5E7FFFFFF7DFFFFFFFBF0B5564644465F464D46F0B444024600C70F83B08846650A360EBA463DD0FF2E22D00023EC00802599469B46ED0425437F3E4346B7
:402C00005C025800DB0F640A000E984636D0FF2830D080230021E400DB041C437F38301A0190484642460843724E800030587A4013008746002D44D108239946063B9B46C4
:402C4000DDE70122FF2000241A406402C305640AD2071C431443200003B03CBC90469946A246AB46F0BD002D20D104239946033B9B46C4E7002C17D1022102E0002C0AD191
:402C80000121321A01924A4643460A435A48920082587B409746200001F046F8431F76309C4040420021BAE70321B8E7280001F03BF8431F9D4000237630464299469B4631
:402CC0009DE70C239946093B9B4698E780240022E403FF20B9E70024C2468B465A465346022AAED0032A7DD0012A31D1012200201A400024A9E70122101A1B2856DD1A403D
:402D000000200024A1E78023DB031D424BD18023DB032B435C02640A3A00FF2095E76D016001854230D2019A0024013A01921B220127290064006D00002901DBA84201D8EF
:402D40002D1A3C43013A002AF3D16A1E95412C4301987F300028CEDD620704D00F222240042A00D00434220103D5244A019814408030FE2800DD64E70122A401640AC0B27A
:402D80001A4062E72C00A9E72D1A1A220124CFE76B02BCD500248023DB031C436402640A4246FF2051E71C42B3D1F4E721002022C140101A8440621E94410C43620704D0B1
:402DC0000F222240042A00D00434620104D5012201201A40002438E70122A401640A1A40002032E78023DB031C436402640A5246FF202AE7803E0000C03E0000FFFFFFF7F8
:402E0000430270B542004C005D0AC30F4802120E460A240EC90FFF2A0FD0FF2C11D00120A24200D070BDB542FCD18B420DD0002AF8D12800431E9841F4E70120002DF1D1D9
:402E4000EBE70120002EEDD1E9E70020EAE7C0464302F0B542005D0AC30F4802440A4800120E000EC90FFF2A1FD0FF2822D0002A09D16E426E4100280FD1002C0DD100209B
:402E8000002D09D005E0002801D1002C01D08B4213D0584201231843F0BD002EF7D048424141012049420843F6E7002DDDD002204042F1E7002CDAD0F9E78242E9DC04DB71
:402EC000A542E6D80020A542E6D25842434101205B421843E0E7C0464302F0B542004C005E0AC30F4802120E450A240EC90FFF2A17D0FF2C19D0002A0BD170427041002C3C
:402F000017D0002807D048424141012049420843F0BD002C13D08B4214D0584201231843F6E70220002EF3D1E3E70220002DEFD1E1E7002DE5D10020002EE9D0EDE7002DA5
:402F4000E9D1EAE7A242E8DC04DBAE42E5D80020AE42DDD25842434101205B421843D7E7F0B557464E4645464300E0B446028846760A1F0EC40F002F47D0FF2F25D0002384
:402F800080259A469946F600ED042E437F3F434642465D02D20F5B006D0A1B0E904640D0FF2B39D080220020ED00D20415437F3BFB1842465746591C62408C4607430F2FF2
:402FC0005CD86F49BF00C9598F46002E45D108239A46063B9946DAE7424602282DD0032800D1C3E0012800D0A2E0002500260240D4B27602ED05760A2E43E4072643300044
:403000001CBC90469946A246F0BD002E1AD104239A46033B9946BAE72A00511E8A41901CC6E70120002DC3D0280000F07DFE431F76309D4043420020BAE70124FF25144097
:403040000026D6E7300000F06FFE431F9E400023763047429A46994699E70C239A46093B994694E780260024F603FF25C1E735004846B2E7350022004846AEE72904090CBB
:403080000800370C3604360C2C0C7943704367437443060C64183619B14203D980214902884647440004000C310409188D01681E8541890E2943350CED19AD010D4329019E
:4030C00004D5012369081D4063460D4319007F31002925DD680704D00F202840042800D00435280103D5274980330D401900FE29A3DC0124AD016E0A1440CDB279E78020BB
:40310000C003064207D0054205D128434602760A4446FF256DE706437602760AFF2568E70124611A1B2905DD14400025002660E76346CBE72E002023CE40591A8D406B1E58
:403140009D412E43730704D00F233340042B00D00436730104D5012401251440002648E70124B601760A1440002542E780260124F6032E437602760A1440FF2539E7C046CA
:40318000003F0000FFFFFFF7F8B54A024E0043024400240EC50F9B09360EC90F9209FF2E00D183E001204140A01BA9425CD0002800DC95E0002E1CD1002A00D081E05A0786
:4031C00004D00F221A40042A00D004335A013BD50134FF2C00D191E001209B015B0AE4B205405B02E4055B0AED0723432B431800F8BDFF2CE3D08021C9040A431B2800DD38
:4032000090E016002021C640081A8240511E8A4132439B1A5A0115D59B019E09300000F083FD0538864084426CDC041B330020200134E340041BA640721E96410024334350
:40324000BDE70D005A07BCD1DF0801231D40FF2C33D1002F00D190E08022D20313003B435B025B0AFF24BCE700284FDD002E2ED0FF2CA4D08025ED042A431B2800DD97E05F
:4032800016002025C640281A8240501E824132439B185A01D5D50134FF2C6DD001227B481A405B08034013430D0088E7002A00D07AE777E7031EC5D100257B025B0AE4B2E9
:4032C0008FE701380028A4D0FF2C97D177E7002A00D174E701380028DAD0FF2CCDD16EE7002821D1601CC0B2012858DD80279E1AFF0437402FD0D61A0D008FE701231D40E1
:4033000000236EE7624B241A334058E7002851D1601CC6B2012E33DDFF282DD09B185B0804004CE7012274E7002C1AD0FF2E1FD08024E404404223431B2800DD96E01D00B3
:403340002024C540201A8340581E83412B43D31A34000D005EE7002E00D05FE700250024ABE7002B44D0C0430028F0D0FF2EE3D11300FF240D0022E70D00FF24002330E70C
:40338000002C5DD1002B7DD0002A00D117E79B185A0100D456E73E4A040013400FE7002C1ED1002B2FD1002A65D013000D0006E701226DE7002C1FD1002B59D0C04300288A
:4033C0000BD0FF2E4FD01B285EDC1D002024C540201A8340581E83412B439B18340058E7002B1CD1002A49D013000D00FF24E6E6130034000D00E2E6FF2E34D08024E404B5
:4034000040422343DFE7002A00D1D8E68027981AFF04074000D14DE7D31A0D00CFE6FF24002A00D1CBE68020DB08C003034204D0D208024201D113000D00DB00FF24BEE6EE
:40344000002B10D0FF24002A00D1B8E68020DB08C003034203D0D208024200D11300DB000D00FF24ABE61300FF24A8E601236EE713003400A3E6002700251EE7802700255F
:40348000FF03E9E613009AE60123A6E7FFFFFF7DFFFFFFFB70B5041E28D000F045FC9E231B1A962B0ADC9622D21A94406202520AD8B25202520AC005104370BD992B18DC09
:4034C0009922D21A9440114A2240610704D00F210C40042C00D00432510103D50B4B1A409F231B1A9201520AD8B2E2E700200022DFE705222500121AB921D5402200C91A1F
:403500008A40541EA2412C001443DCE7FFFFFFFBF8B556465F464D464446F0B40F00FD0FAA4609037C002E005F00450F490A7F0D2943C5001803BC46400A570F640DDB0FD3
:403540003843D2009A4500D1AAE06646A61B002E00DCFFE06346002B39D10300134300D0D9E06B0709D00F232B40042B05D02B1DAB42AD416D4249191D000B0200D482E02E
:40358000CA4B01349C4200D1FEE00A005646C84BED081A405007640552020543120B640D002112030B0D1B056405120B1A436308C04CF60714401C4364006408344328005B
:4035C00021003CBC90469946A246AB46F8BDB74B9C42C6D080231B041843382E00DDEBE01F2E00DD1EE120239B1B9C4603006746BB40984613004746F3403B436746BA4049
:40360000571EBA4113430200F240EB1A9D42B6411D008A1A7642911B0B0231D54A02560A002E00D1B4E0300000F07EFB0300083B1F2B00DDB5E020222900D21AD1409E405D
:403640000A009D4032439C4200DDB1E01C1B631C1F2B00DDD5E0202114002800C91A8C40D8408D400443DA40681E854111002543002476E74146314300D134E231004546BA
:403680006B0700D06FE756464807ED08C9080543864B9C4235D00A036405120B640D7FE76346E31A9B46002B00DC8BE06746002F3CD07E4FBC4200D153E780273F0438433F
:4036C0005B46382B00DCF7E00243501E82410020D2B253194218AB4289411D00494289180B02CDD5714B01349C4200D13DE101206F4A6B080A4028401843D50705435108EF
:403700002FE72B000B4300D1CBE180231B030B431A03120B44E7013E002E6DD1AE1AB5429B41091A5B42C91A350075E70700174300D116E701235B429C46E3445B46002BCA
:4037400000D0E0E0AA18AA429B4109185B4259181500C5E7002E75D1661C7605760D012E00DCF3E0AE1AB0464545BF410E1A7F42F61B370200D48FE0551BAA42B641411A01
:4037800076428E1B9A464BE756460022002507E7280000F0C9FA20300300083B1F2B00DC49E72A002838824000259C4200DC4DE73F49E41A1140D4E60243501E8241D3B213
:4037C000002222E7002B00D0F3E0631C9C465B055B0D012B00DC9FE0344B9C4500D1C3E0AA180918AA42804140424118CD075208154349086446B4E62C4B9C4200D0ECE6CF
:40380000AFE611001F3CE1400C00202B00D17FE04021CB1A9A4015436A1E95410021254300242DE733000700203BDF403B00202E70D04027BE1BB0400243501E82411343CF
:403840000022E2E6002C4FD0184CA44500D1ABE08024240476422143382E00DDDFE01F2E00DD43E12027BC1BA1460C004F46BC40A0462C004746F4403C434F46BD406F1E1F
:40388000BD41F1402C43151BAA429241411A5242891A64469A46BFE641464546314300D0BEE6002600240025F2E6C046FF070000FFFF7FFFFFFF0F801F2B59DC2027FF1A85
:4038C000BC46070063469F405B46B9461700DF40B8464F4643461F4363469A40531E9A415B463A43D840F4E60C002C435CD0F643002E55D1551BAA42A441411A6442091B6A
:403900009A46644688E6964FBC4200D0D8E628E6002280E700208FE70B002B43002C00D0C2E0002B00D101E10300134300D118E6AB18AB42B6410918764271180A0200D4EB
:4039400009E1884A1D00114064460AE6002C5BD10E002E4300D08AE00100114300D1C2E0010015009A46FCE56446002100258FE620235B429C46DC4463460700DF405B461C
:40398000BC46202B00D1ACE040235F46DB1B98400243501E8241634613431A00002098E66F4CA44500D057E70100150064469A46D7E5002C39D10C002C436ED0DB43002B14
:4039C0001AD0674CA44568D0382B00DDA4E01F2B00DDAEE020240F00E41AA740B9462F00DF40B846A3464F46444627435C46A5406C1EA541D9403D43AD1895429B41091872
:403A00005B42591864466BE60C002C4315D1010011437BD0010015009A46514CA1E50D43691E8D410021ECB22DE74D4CA44534D0802424045B422143C6E7040014434ED072
:403A4000ED084C072C438025C9082D03294208D0C6082E4205D1D208410711430C009A463100620FC900E50011433D4C79E50600164300D175E5AE1AB0464545BF410E1AAB
:403A80007F42F61B370200D4F4E5551BAA42B641411A7642891B9A4663E50100150064465FE5002200257BE5002B3BD00300134315D0ED084B072B438025C9082D03294237
:403AC00007D0C4082C4204D141070B002100D2081343C9005A0F1143DD00214C41E5204C3FE5002054E700260025D1E534000F00203CE7403C00202E2BD04027BE1BB140DE
:403B00000D43691E8D4100212C43BCE6802100260903134C0025BBE50D43691E8D410021EDB269E7010015000D4C1AE50100150017E51C000F00203CE7403C00202B0CD071
:403B40004027FB1A99400D43691E8D410021254352E70021D4E71D0092E50021F3E7C046FF070000FFFF7FFF4200120E511C4302C9B270B55D0AC40F012915DDE021890002
:403B80008C466D071B0B6244002128000D0D2D052B431C4D52052B40520813435B00E4075B082343190070BD002A15D1002D1FD0280000F0B9F80A281DDC0B232A001B1A13
:403BC000DA4013000200153295400F4A1B03121A52051B0B520DD7E7002D06D080221B0B120313436D07094ACEE7084A0023CBE700220023C8E703000B3B9D402B000025FA
:403C0000E3E7C046FFFF0F8089030000FF0700004B0070B55E0D0C03751C640A420F6D052243C90FC4006D0D012D2ADD3B4BF318FE2B1ADC002B42DD8001451EA841D200A0
:403C40001043620F0243500704D00F201040042800D004328020C004104021D00133FF2B03D09201520ADBB201E0FF2300225202520ADB0513435B00C9075B080B4318000E
:403C800070BD002E07D01443EFD08020D20080040243FF23D7E722430023002A03D00522D208FF2B03D05202520ADBB2DFE7002A32D08020C00302435202520AD7E71800C1
:403CC000173014DB8020000402431E20C01A1F280FDC2500124BF3189D406E1EB5419A402B0013432200C2401A430023ABE70023D5E702256D42EB1A1500DD40202809D0D1
:403D0000084BF3189A401443621E9441220000232A4398E70022F6E70022A8E780FCFFFF82FCFFFFA2FCFFFF1C2101231B04984201D3000C10391B0A984201D3000A08398B
:403D40001B09984201D30009043902A2105C40187047C04604030202010101010000000000000000014B18687047C0464C0100200E4B70B500251E000D4CE41AA410A5424E
:403D800004D0AB00F35898470135F8E700F0DAF8084B00251E00084CE41AA410A54204D0AB00F35898470135F8E770BD503F0000503F0000503F0000583F0000002310B5E9
:403DC0009A4203D0CC5CC4540133F9E710BD03008218934202D019700133FAE7704700000000000020000000283E0000220200203202002000000000900100200128000062
:403E0000010001010C00F40128280A031E20050008000000000402400804044000040440F0000000040103000000024008000440000004400400044000000F0010000000C7
:403E400010040C00000000017C92000000000003F824010000004001E093040000004003C02709000000C001804F120000008001009F240000008003003E49000000000018
:403E80001E2D0000422C0000002D0000D82C0000002D0000CC2C0000002D0000D82C0000422C0000422C0000CC2C0000D82C0000842D0000842D0000842D0000062D0000A4
:403EC000422C0000422C0000EC2C0000D62C0000EC2C0000CC2C0000EC2C0000D62C0000422C0000422C0000CC2C0000D62C0000842D0000842D0000842D0000902D0000FC
:403F00007C300000DA2F0000DA2F0000D82F00006E3000006E30000064300000D82F00006E300000643000006E300000D82F0000743000007430000074300000FE300000F4
:403F400043000000F8B5C046F8BC08BC9E46704729010000E1040000F8B5C046F8BC08BC9E46704701010000783F0000B800002098000000000100000000000009E841BD4A
:403F8000AC483CBD065B30BDEFA811BD01000000010000000000E02EC05D00001800000000366E010404040020000004000000000000000000000000000000000000000047
:403FC000000000000000000000000000403F000000000000000000000000000000000000000000000000000000000000000000000000000000000000000000000000000042
:40400000000000000000000000000000EC00002000000000000000000000000000000000000000000000000000000000000000000000000000000000000000000000000074
:404040000000000000000000000000000000000000000000000000000000000000000000000000000000000000000000000000000000000000000000000000000000000040
:404080000000000000000000000000000000000000000000000000000000000000000000000000000000000000000000000000000000000000000000000000000000000000
:4040C00000000000000000000000000000000000000000000000000000000000000000000000000000000000000000000000000000000000000000000000000000000000C0
:40410000000000000000000000000000000000000000000000000000000000000000000000000000000000000000000000000000000000000000000000000000000000007F
:020000040003F7
:0200000490303A
:02000000CA3400
:0200000490402A
:4000000000000000000000000000000000000000000000000000000000000000000000000000000000000000000000000000000000000000000000000000000000000000C0
:400040000000000000000000000000000000000000000000000000000000000000000000000000000000000000000000000000000000000000000000000000000000000080
:0200000490501A
:0C0000000002283A11B80001284EDBEC89
:0200000490600A
:0100000001FE
:00000001FF